{
  "contractName": "Election",
  "abi": [
    {
      "inputs": [
        {
          "internalType": "address",
          "name": "_resultContractAddress",
          "type": "address"
        }
      ],
      "stateMutability": "nonpayable",
      "type": "constructor"
    },
    {
      "anonymous": false,
      "inputs": [],
      "name": "ElectionEnded",
      "type": "event"
    },
    {
      "anonymous": false,
      "inputs": [],
      "name": "ElectionStarted",
      "type": "event"
    },
    {
      "anonymous": false,
      "inputs": [
        {
          "indexed": true,
          "internalType": "uint256",
          "name": "_candidateId",
          "type": "uint256"
        }
      ],
      "name": "Voted",
      "type": "event"
    },
    {
      "inputs": [],
      "name": "candidatesCount",
      "outputs": [
        {
          "internalType": "uint256",
          "name": "",
          "type": "uint256"
        }
      ],
      "stateMutability": "view",
      "type": "function",
      "constant": true
    },
    {
      "inputs": [],
      "name": "electionState",
      "outputs": [
        {
          "internalType": "enum Election.State",
          "name": "",
          "type": "uint8"
        }
      ],
      "stateMutability": "view",
      "type": "function",
      "constant": true
    },
    {
      "inputs": [],
      "name": "owner",
      "outputs": [
        {
          "internalType": "address",
          "name": "",
          "type": "address"
        }
      ],
      "stateMutability": "view",
      "type": "function",
      "constant": true
    },
    {
      "inputs": [],
      "name": "resultContract",
      "outputs": [
        {
          "internalType": "contract IResultContract",
          "name": "",
          "type": "address"
        }
      ],
      "stateMutability": "view",
      "type": "function",
      "constant": true
    },
    {
      "inputs": [
        {
          "internalType": "string",
          "name": "_name",
          "type": "string"
        }
      ],
      "name": "addCandidate",
      "outputs": [],
      "stateMutability": "nonpayable",
      "type": "function"
    },
    {
      "inputs": [
        {
          "internalType": "address",
          "name": "_voter",
          "type": "address"
        }
      ],
      "name": "addVoter",
      "outputs": [],
      "stateMutability": "nonpayable",
      "type": "function"
    },
    {
      "inputs": [],
      "name": "startElection",
      "outputs": [],
      "stateMutability": "nonpayable",
      "type": "function"
    },
    {
      "inputs": [],
      "name": "endElection",
      "outputs": [],
      "stateMutability": "nonpayable",
      "type": "function"
    },
    {
      "inputs": [
        {
          "internalType": "uint256",
          "name": "_candidateId",
          "type": "uint256"
        }
      ],
      "name": "vote",
      "outputs": [],
      "stateMutability": "nonpayable",
      "type": "function"
    },
    {
      "inputs": [
        {
          "internalType": "uint256",
          "name": "_candidateId",
          "type": "uint256"
        }
      ],
      "name": "getCandidateDetails",
      "outputs": [
        {
          "internalType": "string",
          "name": "",
          "type": "string"
        },
        {
          "internalType": "uint256",
          "name": "",
          "type": "uint256"
        }
      ],
      "stateMutability": "view",
      "type": "function",
      "constant": true
    },
    {
      "inputs": [],
      "name": "getCandidatesCount",
      "outputs": [
        {
          "internalType": "uint256",
          "name": "",
          "type": "uint256"
        }
      ],
      "stateMutability": "view",
      "type": "function",
      "constant": true
    },
    {
      "inputs": [],
      "name": "getWinner",
      "outputs": [
        {
          "internalType": "string",
          "name": "winnerName",
          "type": "string"
        },
        {
          "internalType": "uint256",
          "name": "winnerVoteCount",
          "type": "uint256"
        }
      ],
      "stateMutability": "view",
      "type": "function",
      "constant": true
    }
  ],
  "bytecode": "0x60806040523480156200001157600080fd5b5060405162001b8b38038062001b8b83398181016040528101906200003791906200015e565b336000806101000a81548173ffffffffffffffffffffffffffffffffffffffff021916908373ffffffffffffffffffffffffffffffffffffffff160217905550600060018190555060008060146101000a81548160ff02191690836002811115620000a757620000a662000190565b5b021790555080600560006101000a81548173ffffffffffffffffffffffffffffffffffffffff021916908373ffffffffffffffffffffffffffffffffffffffff16021790555050620001bf565b600080fd5b600073ffffffffffffffffffffffffffffffffffffffff82169050919050565b60006200012682620000f9565b9050919050565b620001388162000119565b81146200014457600080fd5b50565b60008151905062000158816200012d565b92915050565b600060208284031215620001775762000176620000f4565b5b6000620001878482850162000147565b91505092915050565b7f4e487b7100000000000000000000000000000000000000000000000000000000600052602160045260246000fd5b6119bc80620001cf6000396000f3fe608060405234801561001057600080fd5b50600436106100b45760003560e01c806359f784681161007157806359f784681461017c57806362d73eb8146101865780638da5cb5b146101905780638e7ea5b2146101ae578063bb9aa28f146101cd578063f4ab9adf146101eb576100b4565b80630121b93f146100b95780632280043d146100d557806327f9fd50146100f35780632d35a8a214610124578063462e91ec1461014257806358816f9f1461015e575b600080fd5b6100d360048036038101906100ce9190611038565b610207565b005b6100dd61051d565b6040516100ea91906110dc565b60405180910390f35b61010d60048036038101906101089190611038565b610530565b60405161011b92919061119f565b60405180910390f35b61012c610654565b60405161013991906111cf565b60405180910390f35b61015c6004803603810190610157919061131f565b61065a565b005b610166610826565b60405161017391906113e7565b60405180910390f35b61018461084c565b005b61018e6109a9565b005b610198610b08565b6040516101a59190611423565b60405180910390f35b6101b6610b2c565b6040516101c492919061119f565b60405180910390f35b6101d5610ce4565b6040516101e291906111cf565b60405180910390f35b6102056004803603810190610200919061146a565b610cee565b005b600180600281111561021c5761021b611065565b5b600060149054906101000a900460ff16600281111561023e5761023d611065565b5b1461027e576040517f08c379a000000000000000000000000000000000000000000000000000000000815260040161027590611509565b60405180910390fd5b600460003373ffffffffffffffffffffffffffffffffffffffff1673ffffffffffffffffffffffffffffffffffffffff16815260200190815260200160002060009054906101000a900460ff1661030a576040517f08c379a000000000000000000000000000000000000000000000000000000000815260040161030190611575565b60405180910390fd5b600360003373ffffffffffffffffffffffffffffffffffffffff1673ffffffffffffffffffffffffffffffffffffffff16815260200190815260200160002060009054906101000a900460ff1615610397576040517f08c379a000000000000000000000000000000000000000000000000000000000815260040161038e906115e1565b60405180910390fd5b60015482106103db576040517f08c379a00000000000000000000000000000000000000000000000000000000081526004016103d29061164d565b60405180910390fd5b6002600083815260200190815260200160002060020160008154809291906104029061169c565b91905055506001600360003373ffffffffffffffffffffffffffffffffffffffff1673ffffffffffffffffffffffffffffffffffffffff16815260200190815260200160002060006101000a81548160ff021916908315150217905550600560009054906101000a900473ffffffffffffffffffffffffffffffffffffffff1673ffffffffffffffffffffffffffffffffffffffff166327686c1d836040518263ffffffff1660e01b81526004016104ba91906111cf565b600060405180830381600087803b1580156104d457600080fd5b505af11580156104e8573d6000803e3d6000fd5b50505050817f7f511e347bf51eed3be100b3194247d5207f05f3b33de7d31e3e8ee73199a04960405160405180910390a25050565b600060149054906101000a900460ff1681565b606060006001548310610578576040517f08c379a000000000000000000000000000000000000000000000000000000000815260040161056f9061164d565b60405180910390fd5b600060026000858152602001908152602001600020604051806060016040529081600082015481526020016001820180546105b290611713565b80601f01602080910402602001604051908101604052809291908181526020018280546105de90611713565b801561062b5780601f106106005761010080835404028352916020019161062b565b820191906000526020600020905b81548152906001019060200180831161060e57829003601f168201915b505050505081526020016002820154815250509050806020015181604001519250925050915091565b60015481565b60008054906101000a900473ffffffffffffffffffffffffffffffffffffffff1673ffffffffffffffffffffffffffffffffffffffff163373ffffffffffffffffffffffffffffffffffffffff16146106e8576040517f08c379a00000000000000000000000000000000000000000000000000000000081526004016106df906117b6565b60405180910390fd5b60008060028111156106fd576106fc611065565b5b600060149054906101000a900460ff16600281111561071f5761071e611065565b5b1461075f576040517f08c379a000000000000000000000000000000000000000000000000000000000815260040161075690611509565b60405180910390fd5b60008251116107a3576040517f08c379a000000000000000000000000000000000000000000000000000000000815260040161079a90611822565b60405180910390fd5b6040518060600160405280600154815260200183815260200160008152506002600060015481526020019081526020016000206000820151816000015560208201518160010190805190602001906107fc929190610f4b565b50604082015181600201559050506001600081548092919061081d9061169c565b91905055505050565b600560009054906101000a900473ffffffffffffffffffffffffffffffffffffffff1681565b60008054906101000a900473ffffffffffffffffffffffffffffffffffffffff1673ffffffffffffffffffffffffffffffffffffffff163373ffffffffffffffffffffffffffffffffffffffff16146108da576040517f08c379a00000000000000000000000000000000000000000000000000000000081526004016108d1906117b6565b60405180910390fd5b600160028111156108ee576108ed611065565b5b600060149054906101000a900460ff1660028111156109105761090f611065565b5b14610950576040517f08c379a00000000000000000000000000000000000000000000000000000000081526004016109479061188e565b60405180910390fd5b6002600060146101000a81548160ff0219169083600281111561097657610975611065565b5b02179055507f66ec723071e4bb646f7b35d31bc2dee8510979bd8c180edd0690d4f5e802f1e460405160405180910390a1565b60008054906101000a900473ffffffffffffffffffffffffffffffffffffffff1673ffffffffffffffffffffffffffffffffffffffff163373ffffffffffffffffffffffffffffffffffffffff1614610a37576040517f08c379a0000000000000000000000000000000000000000000000000000000008152600401610a2e906117b6565b60405180910390fd5b6000806002811115610a4c57610a4b611065565b5b600060149054906101000a900460ff166002811115610a6e57610a6d611065565b5b14610aae576040517f08c379a0000000000000000000000000000000000000000000000000000000008152600401610aa590611509565b60405180910390fd5b6001600060146101000a81548160ff02191690836002811115610ad457610ad3611065565b5b02179055507fc475c26aa25ed8e85a7faa790e5f63b5d7ee1025f12821f4c9bfddd36ab4d11260405160405180910390a150565b60008054906101000a900473ffffffffffffffffffffffffffffffffffffffff1681565b606060006002806002811115610b4557610b44611065565b5b600060149054906101000a900460ff166002811115610b6757610b66611065565b5b14610ba7576040517f08c379a0000000000000000000000000000000000000000000000000000000008152600401610b9e90611509565b60405180910390fd5b60008060005b600154811015610c05578260026000838152602001908152602001600020600201541115610bf257600260008281526020019081526020016000206002015492508091505b8080610bfd9061169c565b915050610bad565b5060006002600083815260200190815260200160002060405180606001604052908160008201548152602001600182018054610c4090611713565b80601f0160208091040260200160405190810160405280929190818152602001828054610c6c90611713565b8015610cb95780601f10610c8e57610100808354040283529160200191610cb9565b820191906000526020600020905b815481529060010190602001808311610c9c57829003601f168201915b5050505050815260200160028201548152505090508060200151816040015195509550505050509091565b6000600154905090565b60008054906101000a900473ffffffffffffffffffffffffffffffffffffffff1673ffffffffffffffffffffffffffffffffffffffff163373ffffffffffffffffffffffffffffffffffffffff1614610d7c576040517f08c379a0000000000000000000000000000000000000000000000000000000008152600401610d73906117b6565b60405180910390fd5b6000806002811115610d9157610d90611065565b5b600060149054906101000a900460ff166002811115610db357610db2611065565b5b14610df3576040517f08c379a0000000000000000000000000000000000000000000000000000000008152600401610dea90611509565b60405180910390fd5b600073ffffffffffffffffffffffffffffffffffffffff168273ffffffffffffffffffffffffffffffffffffffff1603610e62576040517f08c379a0000000000000000000000000000000000000000000000000000000008152600401610e59906118fa565b60405180910390fd5b600460008373ffffffffffffffffffffffffffffffffffffffff1673ffffffffffffffffffffffffffffffffffffffff16815260200190815260200160002060009054906101000a900460ff1615610eef576040517f08c379a0000000000000000000000000000000000000000000000000000000008152600401610ee690611966565b60405180910390fd5b6001600460008473ffffffffffffffffffffffffffffffffffffffff1673ffffffffffffffffffffffffffffffffffffffff16815260200190815260200160002060006101000a81548160ff0219169083151502179055505050565b828054610f5790611713565b90600052602060002090601f016020900481019282610f795760008555610fc0565b82601f10610f9257805160ff1916838001178555610fc0565b82800160010185558215610fc0579182015b82811115610fbf578251825591602001919060010190610fa4565b5b509050610fcd9190610fd1565b5090565b5b80821115610fea576000816000905550600101610fd2565b5090565b6000604051905090565b600080fd5b600080fd5b6000819050919050565b61101581611002565b811461102057600080fd5b50565b6000813590506110328161100c565b92915050565b60006020828403121561104e5761104d610ff8565b5b600061105c84828501611023565b91505092915050565b7f4e487b7100000000000000000000000000000000000000000000000000000000600052602160045260246000fd5b600381106110a5576110a4611065565b5b50565b60008190506110b682611094565b919050565b60006110c6826110a8565b9050919050565b6110d6816110bb565b82525050565b60006020820190506110f160008301846110cd565b92915050565b600081519050919050565b600082825260208201905092915050565b60005b83811015611131578082015181840152602081019050611116565b83811115611140576000848401525b50505050565b6000601f19601f8301169050919050565b6000611162826110f7565b61116c8185611102565b935061117c818560208601611113565b61118581611146565b840191505092915050565b61119981611002565b82525050565b600060408201905081810360008301526111b98185611157565b90506111c86020830184611190565b9392505050565b60006020820190506111e46000830184611190565b92915050565b600080fd5b600080fd5b7f4e487b7100000000000000000000000000000000000000000000000000000000600052604160045260246000fd5b61122c82611146565b810181811067ffffffffffffffff8211171561124b5761124a6111f4565b5b80604052505050565b600061125e610fee565b905061126a8282611223565b919050565b600067ffffffffffffffff82111561128a576112896111f4565b5b61129382611146565b9050602081019050919050565b82818337600083830152505050565b60006112c26112bd8461126f565b611254565b9050828152602081018484840111156112de576112dd6111ef565b5b6112e98482856112a0565b509392505050565b600082601f830112611306576113056111ea565b5b81356113168482602086016112af565b91505092915050565b60006020828403121561133557611334610ff8565b5b600082013567ffffffffffffffff81111561135357611352610ffd565b5b61135f848285016112f1565b91505092915050565b600073ffffffffffffffffffffffffffffffffffffffff82169050919050565b6000819050919050565b60006113ad6113a86113a384611368565b611388565b611368565b9050919050565b60006113bf82611392565b9050919050565b60006113d1826113b4565b9050919050565b6113e1816113c6565b82525050565b60006020820190506113fc60008301846113d8565b92915050565b600061140d82611368565b9050919050565b61141d81611402565b82525050565b60006020820190506114386000830184611414565b92915050565b61144781611402565b811461145257600080fd5b50565b6000813590506114648161143e565b92915050565b6000602082840312156114805761147f610ff8565b5b600061148e84828501611455565b91505092915050565b7f496e76616c696420656c656374696f6e20737461746520666f7220746869732060008201527f616374696f6e2e00000000000000000000000000000000000000000000000000602082015250565b60006114f3602783611102565b91506114fe82611497565b604082019050919050565b60006020820190508181036000830152611522816114e6565b9050919050565b7f596f7520617265206e6f7420617574686f72697a656420746f20766f74652e00600082015250565b600061155f601f83611102565b915061156a82611529565b602082019050919050565b6000602082019050818103600083015261158e81611552565b9050919050565b7f596f75206861766520616c726561647920766f7465642e000000000000000000600082015250565b60006115cb601783611102565b91506115d682611595565b602082019050919050565b600060208201905081810360008301526115fa816115be565b9050919050565b7f496e76616c69642063616e6469646174652049442e0000000000000000000000600082015250565b6000611637601583611102565b915061164282611601565b602082019050919050565b600060208201905081810360008301526116668161162a565b9050919050565b7f4e487b7100000000000000000000000000000000000000000000000000000000600052601160045260246000fd5b60006116a782611002565b91507fffffffffffffffffffffffffffffffffffffffffffffffffffffffffffffffff82036116d9576116d861166d565b5b600182019050919050565b7f4e487b7100000000000000000000000000000000000000000000000000000000600052602260045260246000fd5b6000600282049050600182168061172b57607f821691505b60208210810361173e5761173d6116e4565b5b50919050565b7f4f6e6c7920746865206f776e65722063616e20706572666f726d20746869732060008201527f616374696f6e2e00000000000000000000000000000000000000000000000000602082015250565b60006117a0602783611102565b91506117ab82611744565b604082019050919050565b600060208201905081810360008301526117cf81611793565b9050919050565b7f43616e646964617465206e616d652063616e6e6f7420626520656d7074792e00600082015250565b600061180c601f83611102565b9150611817826117d6565b602082019050919050565b6000602082019050818103600083015261183b816117ff565b9050919050565b7f456c656374696f6e206973206e6f7420696e2070726f67726573732e00000000600082015250565b6000611878601c83611102565b915061188382611842565b602082019050919050565b600060208201905081810360008301526118a78161186b565b9050919050565b7f496e76616c696420616464726573732e00000000000000000000000000000000600082015250565b60006118e4601083611102565b91506118ef826118ae565b602082019050919050565b60006020820190508181036000830152611913816118d7565b9050919050565b7f566f74657220616c72656164792061646465642e000000000000000000000000600082015250565b6000611950601483611102565b915061195b8261191a565b602082019050919050565b6000602082019050818103600083015261197f81611943565b905091905056fea26469706673582212208d0e7a22eb6a1ff364a67f4a3f9e013da111581b8bf66d2624eddde721b074ac64736f6c634300080e0033",
  "immutableReferences": {},
  "source": "// SPDX-License-Identifier: MIT\r\npragma solidity ^0.8.14;\r\n\r\ninterface IResultContract {\r\n    function recordVote(uint256 _candidateId) external;\r\n}\r\n\r\ncontract Election {\r\n\r\n    enum State {\r\n        NotStarted,\r\n        InProgress,\r\n        Ended\r\n    }\r\n\r\n    struct Candidate {\r\n        uint256 id;\r\n        string name;\r\n        uint256 voteCount;\r\n    }\r\n\r\n    address public owner;\r\n    State public electionState;\r\n    uint256 public candidatesCount;\r\n\r\n    mapping(uint256 => Candidate) private candidates;\r\n    mapping(address => bool) private voted;\r\n    mapping(address => bool) private isVoter;\r\n\r\n    IResultContract public resultContract;\r\n\r\n    event Voted(uint256 indexed _candidateId);\r\n    event ElectionStarted();\r\n    event ElectionEnded();\r\n\r\n    constructor(address _resultContractAddress) {\r\n        owner = msg.sender;\r\n        candidatesCount = 0;\r\n        electionState = State.NotStarted;\r\n        resultContract = IResultContract(_resultContractAddress);\r\n    }\r\n\r\n    modifier onlyOwner() {\r\n        require(msg.sender == owner, \"Only the owner can perform this action.\");\r\n        _;\r\n    }\r\n\r\n    modifier inState(State _state) {\r\n        require(electionState == _state, \"Invalid election state for this action.\");\r\n        _;\r\n    }\r\n\r\n    function addCandidate(string memory _name) public onlyOwner inState(State.NotStarted) {\r\n        require(bytes(_name).length > 0, \"Candidate name cannot be empty.\");\r\n        candidates[candidatesCount] = Candidate(candidatesCount, _name, 0);\r\n        candidatesCount++;\r\n    }\r\n\r\n    function addVoter(address _voter) public onlyOwner inState(State.NotStarted) {\r\n        require(_voter != address(0), \"Invalid address.\");\r\n        require(!isVoter[_voter], \"Voter already added.\");\r\n        isVoter[_voter] = true;\r\n    }\r\n\r\n    function startElection() public onlyOwner inState(State.NotStarted) {\r\n        electionState = State.InProgress;\r\n        emit ElectionStarted();\r\n    }\r\n\r\n    function endElection() external onlyOwner {\r\n        require(electionState == State.InProgress, \"Election is not in progress.\");\r\n        electionState = State.Ended;\r\n        emit ElectionEnded();\r\n    }\r\n\r\n    function vote(uint256 _candidateId) external inState(State.InProgress) {\r\n        require(isVoter[msg.sender], \"You are not authorized to vote.\");\r\n        require(!voted[msg.sender], \"You have already voted.\");\r\n        require(_candidateId < candidatesCount, \"Invalid candidate ID.\");\r\n\r\n        // Update voteCount in the Election contract\r\n        candidates[_candidateId].voteCount++;\r\n        voted[msg.sender] = true;\r\n\r\n        // Record the vote in the ResultContract\r\n        resultContract.recordVote(_candidateId);\r\n\r\n        emit Voted(_candidateId);\r\n    }\r\n\r\n    function getCandidateDetails(uint256 _candidateId)\r\n        external\r\n        view\r\n        returns (string memory, uint256)\r\n    {\r\n        require(_candidateId < candidatesCount, \"Invalid candidate ID.\");\r\n        Candidate memory c = candidates[_candidateId];\r\n        return (c.name, c.voteCount);\r\n    }\r\n\r\n    function getCandidatesCount() public view returns (uint256) {\r\n        return candidatesCount;\r\n    }\r\n\r\n    function getWinner() public view inState(State.Ended) returns (string memory winnerName, uint256 winnerVoteCount) {\r\n        uint256 maxVotes = 0;\r\n        uint256 winnerId = 0;\r\n        for (uint256 i = 0; i < candidatesCount; i++) {\r\n            if (candidates[i].voteCount > maxVotes) {\r\n                maxVotes = candidates[i].voteCount;\r\n                winnerId = i;\r\n            }\r\n        }\r\n        Candidate memory winner = candidates[winnerId];\r\n        return (winner.name, winner.voteCount);\r\n    }\r\n}\r\n",
  "sourcePath": "D:\\test_app_git\\voting-dapp\\contracts\\Voting.sol",
  "compiler": {
    "name": "solc",
    "version": "0.8.14+commit.80d49f37.Emscripten.clang"
  },
  "schemaVersion": "3.4.16",
  "updatedAt": "2025-01-23T21:52:32.089Z",
  "networkType": "ethereum",
  "devdoc": {
    "kind": "dev",
    "methods": {},
    "version": 1
  },
  "userdoc": {
    "kind": "user",
    "methods": {},
    "version": 1
  }
}