{
  "contractName": "ResultContract",
  "abi": [
    {
      "anonymous": false,
      "inputs": [
        {
          "indexed": true,
          "internalType": "uint256",
          "name": "candidateId",
          "type": "uint256"
        },
        {
          "indexed": false,
          "internalType": "uint256",
          "name": "totalVotes",
          "type": "uint256"
        }
      ],
      "name": "VoteRecorded",
      "type": "event"
    },
    {
      "inputs": [
        {
          "internalType": "uint256",
          "name": "_candidateId",
          "type": "uint256"
        }
      ],
      "name": "recordVote",
      "outputs": [],
      "stateMutability": "nonpayable",
      "type": "function"
    },
    {
      "inputs": [
        {
          "internalType": "uint256",
          "name": "_candidateId",
          "type": "uint256"
        }
      ],
      "name": "getResult",
      "outputs": [
        {
          "internalType": "uint256",
          "name": "",
          "type": "uint256"
        }
      ],
      "stateMutability": "view",
      "type": "function",
      "constant": true
    },
    {
      "inputs": [
        {
          "internalType": "uint256[]",
          "name": "candidateIds",
          "type": "uint256[]"
        }
      ],
      "name": "getWinners",
      "outputs": [
        {
          "internalType": "uint256[]",
          "name": "",
          "type": "uint256[]"
        }
      ],
      "stateMutability": "view",
      "type": "function",
      "constant": true
    }
  ],
  "bytecode": "0x608060405234801561001057600080fd5b50610764806100206000396000f3fe608060405234801561001057600080fd5b50600436106100415760003560e01c806327686c1d14610046578063466e747114610062578063995e433914610092575b600080fd5b610060600480360381019061005b9190610359565b6100c2565b005b61007c600480360381019061007791906104df565b610139565b60405161008991906105e6565b60405180910390f35b6100ac60048036038101906100a79190610359565b6102f3565b6040516100b99190610617565b60405180910390f35b600160008083815260200190815260200160002060008282546100e59190610661565b92505081905550807fd995ae6a0ff2c9da58461ab05dfa20d625943d1edbc1a369f8aa2f37d200213b6000808481526020019081526020016000205460405161012e9190610617565b60405180910390a250565b60606000805b83518110156101995760008060008684815181106101605761015f6106b7565b5b6020026020010151815260200190815260200160002054905082811115610185578092505b508080610191906106e6565b91505061013f565b506000805b84518110156101fc57826000808784815181106101be576101bd6106b7565b5b6020026020010151815260200190815260200160002054036101e95781806101e5906106e6565b9250505b80806101f4906106e6565b91505061019e565b5060008167ffffffffffffffff8111156102195761021861039c565b5b6040519080825280602002602001820160405280156102475781602001602082028036833780820191505090505b5090506000805b86518110156102e6578460008089848151811061026e5761026d6106b7565b5b6020026020010151815260200190815260200160002054036102d35786818151811061029d5761029c6106b7565b5b60200260200101518383815181106102b8576102b76106b7565b5b60200260200101818152505081806102cf906106e6565b9250505b80806102de906106e6565b91505061024e565b5081945050505050919050565b6000806000838152602001908152602001600020549050919050565b6000604051905090565b600080fd5b600080fd5b6000819050919050565b61033681610323565b811461034157600080fd5b50565b6000813590506103538161032d565b92915050565b60006020828403121561036f5761036e610319565b5b600061037d84828501610344565b91505092915050565b600080fd5b6000601f19601f8301169050919050565b7f4e487b7100000000000000000000000000000000000000000000000000000000600052604160045260246000fd5b6103d48261038b565b810181811067ffffffffffffffff821117156103f3576103f261039c565b5b80604052505050565b600061040661030f565b905061041282826103cb565b919050565b600067ffffffffffffffff8211156104325761043161039c565b5b602082029050602081019050919050565b600080fd5b600061045b61045684610417565b6103fc565b9050808382526020820190506020840283018581111561047e5761047d610443565b5b835b818110156104a757806104938882610344565b845260208401935050602081019050610480565b5050509392505050565b600082601f8301126104c6576104c5610386565b5b81356104d6848260208601610448565b91505092915050565b6000602082840312156104f5576104f4610319565b5b600082013567ffffffffffffffff8111156105135761051261031e565b5b61051f848285016104b1565b91505092915050565b600081519050919050565b600082825260208201905092915050565b6000819050602082019050919050565b61055d81610323565b82525050565b600061056f8383610554565b60208301905092915050565b6000602082019050919050565b600061059382610528565b61059d8185610533565b93506105a883610544565b8060005b838110156105d95781516105c08882610563565b97506105cb8361057b565b9250506001810190506105ac565b5085935050505092915050565b600060208201905081810360008301526106008184610588565b905092915050565b61061181610323565b82525050565b600060208201905061062c6000830184610608565b92915050565b7f4e487b7100000000000000000000000000000000000000000000000000000000600052601160045260246000fd5b600061066c82610323565b915061067783610323565b9250827fffffffffffffffffffffffffffffffffffffffffffffffffffffffffffffffff038211156106ac576106ab610632565b5b828201905092915050565b7f4e487b7100000000000000000000000000000000000000000000000000000000600052603260045260246000fd5b60006106f182610323565b91507fffffffffffffffffffffffffffffffffffffffffffffffffffffffffffffffff820361072357610722610632565b5b60018201905091905056fea26469706673582212204dcebe8a5ce7f928a73fbd51e4de7775e6198069217d1c5c6d40c785fcb0bdfc64736f6c634300080e0033",
  "immutableReferences": {},
  "source": "// SPDX-License-Identifier: MIT\r\npragma solidity ^0.8.14;\r\n\r\ncontract ResultContract {\r\n    \r\n    mapping(uint256 => uint256) private results;\r\n\r\n    \r\n    event VoteRecorded(uint256 indexed candidateId, uint256 totalVotes);\r\n\r\n    // Function to record a vote\r\n    function recordVote(uint256 _candidateId) external {\r\n        results[_candidateId] += 1;\r\n        emit VoteRecorded(_candidateId, results[_candidateId]);\r\n    }\r\n\r\n    // Function to get the result of a candidate\r\n    function getResult(uint256 _candidateId) external view returns (uint256) {\r\n        return results[_candidateId];\r\n    }\r\n\r\n    // Function to get all winners (in case of a tie)\r\n    function getWinners(uint256[] memory candidateIds) external view returns (uint256[] memory) {\r\n        uint256 maxVotes = 0;\r\n        // Determinm numrul maxim de voturi\r\n        for (uint256 i = 0; i < candidateIds.length; i++) {\r\n            uint256 voteCount = results[candidateIds[i]];\r\n            if (voteCount > maxVotes) {\r\n                maxVotes = voteCount;\r\n            }\r\n        }\r\n\r\n        \r\n        uint256 winnerCount = 0;\r\n        for (uint256 i = 0; i < candidateIds.length; i++) {\r\n            if (results[candidateIds[i]] == maxVotes) {\r\n                winnerCount++;\r\n            }\r\n        }\r\n\r\n        uint256[] memory winners = new uint256[](winnerCount);\r\n        uint256 index = 0;\r\n        for (uint256 i = 0; i < candidateIds.length; i++) {\r\n            if (results[candidateIds[i]] == maxVotes) {\r\n                winners[index] = candidateIds[i];\r\n                index++;\r\n            }\r\n        }\r\n\r\n        return winners;\r\n    }\r\n}\r\n",
  "sourcePath": "D:\\test_app_git\\voting-dapp\\contracts\\ResultContract.sol",
  "compiler": {
    "name": "solc",
    "version": "0.8.14+commit.80d49f37.Emscripten.clang"
  },
  "schemaVersion": "3.4.16",
  "updatedAt": "2025-01-23T21:52:32.094Z",
  "networkType": "ethereum",
  "devdoc": {
    "kind": "dev",
    "methods": {},
    "version": 1
  },
  "userdoc": {
    "kind": "user",
    "methods": {},
    "version": 1
  }
}